{
  "_format": "hh-sol-artifact-1",
  "contractName": "ProfileImageNfts",
  "sourceName": "contracts/MintProfileImage.sol",
  "abi": [
    {
      "inputs": [],
      "stateMutability": "nonpayable",
      "type": "constructor"
    },
    {
      "anonymous": false,
      "inputs": [
        {
          "indexed": true,
          "internalType": "address",
          "name": "owner",
          "type": "address"
        },
        {
          "indexed": true,
          "internalType": "address",
          "name": "approved",
          "type": "address"
        },
        {
          "indexed": true,
          "internalType": "uint256",
          "name": "tokenId",
          "type": "uint256"
        }
      ],
      "name": "Approval",
      "type": "event"
    },
    {
      "anonymous": false,
      "inputs": [
        {
          "indexed": true,
          "internalType": "address",
          "name": "owner",
          "type": "address"
        },
        {
          "indexed": true,
          "internalType": "address",
          "name": "operator",
          "type": "address"
        },
        {
          "indexed": false,
          "internalType": "bool",
          "name": "approved",
          "type": "bool"
        }
      ],
      "name": "ApprovalForAll",
      "type": "event"
    },
    {
      "anonymous": false,
      "inputs": [
        {
          "indexed": true,
          "internalType": "address",
          "name": "previousOwner",
          "type": "address"
        },
        {
          "indexed": true,
          "internalType": "address",
          "name": "newOwner",
          "type": "address"
        }
      ],
      "name": "OwnershipTransferred",
      "type": "event"
    },
    {
      "anonymous": false,
      "inputs": [
        {
          "indexed": true,
          "internalType": "address",
          "name": "from",
          "type": "address"
        },
        {
          "indexed": true,
          "internalType": "address",
          "name": "to",
          "type": "address"
        },
        {
          "indexed": true,
          "internalType": "uint256",
          "name": "tokenId",
          "type": "uint256"
        }
      ],
      "name": "Transfer",
      "type": "event"
    },
    {
      "inputs": [
        {
          "internalType": "address",
          "name": "to",
          "type": "address"
        },
        {
          "internalType": "uint256",
          "name": "tokenId",
          "type": "uint256"
        }
      ],
      "name": "approve",
      "outputs": [],
      "stateMutability": "nonpayable",
      "type": "function"
    },
    {
      "inputs": [
        {
          "internalType": "address",
          "name": "owner",
          "type": "address"
        }
      ],
      "name": "balanceOf",
      "outputs": [
        {
          "internalType": "uint256",
          "name": "",
          "type": "uint256"
        }
      ],
      "stateMutability": "view",
      "type": "function"
    },
    {
      "inputs": [],
      "name": "getAlltoken",
      "outputs": [
        {
          "components": [
            {
              "internalType": "uint256",
              "name": "id",
              "type": "uint256"
            },
            {
              "internalType": "string",
              "name": "uri",
              "type": "string"
            },
            {
              "internalType": "string",
              "name": "space",
              "type": "string"
            }
          ],
          "internalType": "struct ProfileImageNfts.RenderToken[]",
          "name": "",
          "type": "tuple[]"
        }
      ],
      "stateMutability": "view",
      "type": "function"
    },
    {
      "inputs": [
        {
          "internalType": "uint256",
          "name": "tokenId",
          "type": "uint256"
        }
      ],
      "name": "getApproved",
      "outputs": [
        {
          "internalType": "address",
          "name": "",
          "type": "address"
        }
      ],
      "stateMutability": "view",
      "type": "function"
    },
    {
      "inputs": [
        {
          "internalType": "address",
          "name": "owner",
          "type": "address"
        },
        {
          "internalType": "address",
          "name": "operator",
          "type": "address"
        }
      ],
      "name": "isApprovedForAll",
      "outputs": [
        {
          "internalType": "bool",
          "name": "",
          "type": "bool"
        }
      ],
      "stateMutability": "view",
      "type": "function"
    },
    {
      "inputs": [
        {
          "internalType": "address",
          "name": "recipents",
          "type": "address"
        },
        {
          "internalType": "string",
          "name": "_uri",
          "type": "string"
        }
      ],
      "name": "mint",
      "outputs": [
        {
          "internalType": "uint256",
          "name": "",
          "type": "uint256"
        }
      ],
      "stateMutability": "nonpayable",
      "type": "function"
    },
    {
      "inputs": [],
      "name": "name",
      "outputs": [
        {
          "internalType": "string",
          "name": "",
          "type": "string"
        }
      ],
      "stateMutability": "view",
      "type": "function"
    },
    {
      "inputs": [],
      "name": "owner",
      "outputs": [
        {
          "internalType": "address",
          "name": "",
          "type": "address"
        }
      ],
      "stateMutability": "view",
      "type": "function"
    },
    {
      "inputs": [
        {
          "internalType": "uint256",
          "name": "tokenId",
          "type": "uint256"
        }
      ],
      "name": "ownerOf",
      "outputs": [
        {
          "internalType": "address",
          "name": "",
          "type": "address"
        }
      ],
      "stateMutability": "view",
      "type": "function"
    },
    {
      "inputs": [],
      "name": "renounceOwnership",
      "outputs": [],
      "stateMutability": "nonpayable",
      "type": "function"
    },
    {
      "inputs": [
        {
          "internalType": "address",
          "name": "from",
          "type": "address"
        },
        {
          "internalType": "address",
          "name": "to",
          "type": "address"
        },
        {
          "internalType": "uint256",
          "name": "tokenId",
          "type": "uint256"
        }
      ],
      "name": "safeTransferFrom",
      "outputs": [],
      "stateMutability": "nonpayable",
      "type": "function"
    },
    {
      "inputs": [
        {
          "internalType": "address",
          "name": "from",
          "type": "address"
        },
        {
          "internalType": "address",
          "name": "to",
          "type": "address"
        },
        {
          "internalType": "uint256",
          "name": "tokenId",
          "type": "uint256"
        },
        {
          "internalType": "bytes",
          "name": "data",
          "type": "bytes"
        }
      ],
      "name": "safeTransferFrom",
      "outputs": [],
      "stateMutability": "nonpayable",
      "type": "function"
    },
    {
      "inputs": [
        {
          "internalType": "address",
          "name": "operator",
          "type": "address"
        },
        {
          "internalType": "bool",
          "name": "approved",
          "type": "bool"
        }
      ],
      "name": "setApprovalForAll",
      "outputs": [],
      "stateMutability": "nonpayable",
      "type": "function"
    },
    {
      "inputs": [
        {
          "internalType": "bytes4",
          "name": "interfaceId",
          "type": "bytes4"
        }
      ],
      "name": "supportsInterface",
      "outputs": [
        {
          "internalType": "bool",
          "name": "",
          "type": "bool"
        }
      ],
      "stateMutability": "view",
      "type": "function"
    },
    {
      "inputs": [],
      "name": "symbol",
      "outputs": [
        {
          "internalType": "string",
          "name": "",
          "type": "string"
        }
      ],
      "stateMutability": "view",
      "type": "function"
    },
    {
      "inputs": [
        {
          "internalType": "uint256",
          "name": "tokenId",
          "type": "uint256"
        }
      ],
      "name": "tokenURI",
      "outputs": [
        {
          "internalType": "string",
          "name": "",
          "type": "string"
        }
      ],
      "stateMutability": "view",
      "type": "function"
    },
    {
      "inputs": [
        {
          "internalType": "address",
          "name": "from",
          "type": "address"
        },
        {
          "internalType": "address",
          "name": "to",
          "type": "address"
        },
        {
          "internalType": "uint256",
          "name": "tokenId",
          "type": "uint256"
        }
      ],
      "name": "transferFrom",
      "outputs": [],
      "stateMutability": "nonpayable",
      "type": "function"
    },
    {
      "inputs": [
        {
          "internalType": "address",
          "name": "newOwner",
          "type": "address"
        }
      ],
      "name": "transferOwnership",
      "outputs": [],
      "stateMutability": "nonpayable",
      "type": "function"
    }
  ],
  "bytecode": "0x60806040523480156200001157600080fd5b506040518060400160405280601081526020017f50726f66696c65496d6167654e667473000000000000000000000000000000008152506040518060400160405280600381526020017f50494e0000000000000000000000000000000000000000000000000000000000815250816000908051906020019062000096929190620001a6565b508060019080519060200190620000af929190620001a6565b505050620000d2620000c6620000d860201b60201c565b620000e060201b60201c565b620002bb565b600033905090565b6000600660009054906101000a900473ffffffffffffffffffffffffffffffffffffffff16905081600660006101000a81548173ffffffffffffffffffffffffffffffffffffffff021916908373ffffffffffffffffffffffffffffffffffffffff1602179055508173ffffffffffffffffffffffffffffffffffffffff168173ffffffffffffffffffffffffffffffffffffffff167f8be0079c531659141344cd1fd0a4f28419497f9722a3daafe3b4186f6b6457e060405160405180910390a35050565b828054620001b49062000285565b90600052602060002090601f016020900481019282620001d8576000855562000224565b82601f10620001f357805160ff191683800117855562000224565b8280016001018555821562000224579182015b828111156200022357825182559160200191906001019062000206565b5b50905062000233919062000237565b5090565b5b808211156200025257600081600090555060010162000238565b5090565b7f4e487b7100000000000000000000000000000000000000000000000000000000600052602260045260246000fd5b600060028204905060018216806200029e57607f821691505b60208210811415620002b557620002b462000256565b5b50919050565b612bde80620002cb6000396000f3fe608060405234801561001057600080fd5b50600436106101165760003560e01c8063715018a6116100a2578063b88d4fde11610071578063b88d4fde146102cd578063c87b56dd146102e9578063d0def52114610319578063e985e9c514610349578063f2fde38b1461037957610116565b8063715018a61461026b5780638da5cb5b1461027557806395d89b4114610293578063a22cb465146102b157610116565b806323b872dd116100e957806323b872dd146101b557806328904431146101d157806342842e0e146101ef5780636352211e1461020b57806370a082311461023b57610116565b806301ffc9a71461011b57806306fdde031461014b578063081812fc14610169578063095ea7b314610199575b600080fd5b61013560048036038101906101309190611abd565b610395565b6040516101429190611b05565b60405180910390f35b610153610477565b6040516101609190611bb9565b60405180910390f35b610183600480360381019061017e9190611c11565b610509565b6040516101909190611c7f565b60405180910390f35b6101b360048036038101906101ae9190611cc6565b61054f565b005b6101cf60048036038101906101ca9190611d06565b610667565b005b6101d96106c7565b6040516101e69190611ecb565b60405180910390f35b61020960048036038101906102049190611d06565b6107e0565b005b61022560048036038101906102209190611c11565b610800565b6040516102329190611c7f565b60405180910390f35b61025560048036038101906102509190611eed565b610887565b6040516102629190611f29565b60405180910390f35b61027361093f565b005b61027d610953565b60405161028a9190611c7f565b60405180910390f35b61029b61097d565b6040516102a89190611bb9565b60405180910390f35b6102cb60048036038101906102c69190611f70565b610a0f565b005b6102e760048036038101906102e291906120e5565b610a25565b005b61030360048036038101906102fe9190611c11565b610a87565b6040516103109190611bb9565b60405180910390f35b610333600480360381019061032e9190612209565b610b7a565b6040516103409190611f29565b60405180910390f35b610363600480360381019061035e9190612265565b610bb1565b6040516103709190611b05565b60405180910390f35b610393600480360381019061038e9190611eed565b610c45565b005b60007f80ac58cd000000000000000000000000000000000000000000000000000000007bffffffffffffffffffffffffffffffffffffffffffffffffffffffff1916827bffffffffffffffffffffffffffffffffffffffffffffffffffffffff1916148061046057507f5b5e139f000000000000000000000000000000000000000000000000000000007bffffffffffffffffffffffffffffffffffffffffffffffffffffffff1916827bffffffffffffffffffffffffffffffffffffffffffffffffffffffff1916145b80610470575061046f82610cc9565b5b9050919050565b606060008054610486906122d4565b80601f01602080910402602001604051908101604052809291908181526020018280546104b2906122d4565b80156104ff5780601f106104d4576101008083540402835291602001916104ff565b820191906000526020600020905b8154815290600101906020018083116104e257829003601f168201915b5050505050905090565b600061051482610d33565b6004600083815260200190815260200160002060009054906101000a900473ffffffffffffffffffffffffffffffffffffffff169050919050565b600061055a82610800565b90508073ffffffffffffffffffffffffffffffffffffffff168373ffffffffffffffffffffffffffffffffffffffff1614156105cb576040517f08c379a00000000000000000000000000000000000000000000000000000000081526004016105c290612378565b60405180910390fd5b8073ffffffffffffffffffffffffffffffffffffffff166105ea610d7e565b73ffffffffffffffffffffffffffffffffffffffff161480610619575061061881610613610d7e565b610bb1565b5b610658576040517f08c379a000000000000000000000000000000000000000000000000000000000815260040161064f9061240a565b60405180910390fd5b6106628383610d86565b505050565b610678610672610d7e565b82610e3f565b6106b7576040517f08c379a00000000000000000000000000000000000000000000000000000000081526004016106ae9061249c565b60405180910390fd5b6106c2838383610ed4565b505050565b606060006106d560076111ce565b905060008167ffffffffffffffff8111156106f3576106f2611fba565b5b60405190808252806020026020018201604052801561072c57816020015b61071961198d565b8152602001906001900390816107115790505b50905060005b8281116107d757610742816111dc565b156107c457600061075282610a87565b905060405180606001604052808381526020018281526020016040518060400160405280600181526020017f20000000000000000000000000000000000000000000000000000000000000008152508152508383815181106107b7576107b66124bc565b5b6020026020010181905250505b80806107cf9061251a565b915050610732565b50809250505090565b6107fb83838360405180602001604052806000815250610a25565b505050565b60008061080c8361121d565b9050600073ffffffffffffffffffffffffffffffffffffffff168173ffffffffffffffffffffffffffffffffffffffff16141561087e576040517f08c379a0000000000000000000000000000000000000000000000000000000008152600401610875906125af565b60405180910390fd5b80915050919050565b60008073ffffffffffffffffffffffffffffffffffffffff168273ffffffffffffffffffffffffffffffffffffffff1614156108f8576040517f08c379a00000000000000000000000000000000000000000000000000000000081526004016108ef90612641565b60405180910390fd5b600360008373ffffffffffffffffffffffffffffffffffffffff1673ffffffffffffffffffffffffffffffffffffffff168152602001908152602001600020549050919050565b61094761125a565b61095160006112d8565b565b6000600660009054906101000a900473ffffffffffffffffffffffffffffffffffffffff16905090565b60606001805461098c906122d4565b80601f01602080910402602001604051908101604052809291908181526020018280546109b8906122d4565b8015610a055780601f106109da57610100808354040283529160200191610a05565b820191906000526020600020905b8154815290600101906020018083116109e857829003601f168201915b5050505050905090565b610a21610a1a610d7e565b838361139e565b5050565b610a36610a30610d7e565b83610e3f565b610a75576040517f08c379a0000000000000000000000000000000000000000000000000000000008152600401610a6c9061249c565b60405180910390fd5b610a818484848461150b565b50505050565b6060610a92826111dc565b610ad1576040517f08c379a0000000000000000000000000000000000000000000000000000000008152600401610ac8906126ad565b60405180910390fd5b6000600860008481526020019081526020016000208054610af1906122d4565b80601f0160208091040260200160405190810160405280929190818152602001828054610b1d906122d4565b8015610b6a5780601f10610b3f57610100808354040283529160200191610b6a565b820191906000526020600020905b815481529060010190602001808311610b4d57829003601f168201915b5050505050905080915050919050565b600080610b8760076111ce565b9050610b938482611567565b610b9d8184611785565b610ba760076117b1565b8091505092915050565b6000600560008473ffffffffffffffffffffffffffffffffffffffff1673ffffffffffffffffffffffffffffffffffffffff16815260200190815260200160002060008373ffffffffffffffffffffffffffffffffffffffff1673ffffffffffffffffffffffffffffffffffffffff16815260200190815260200160002060009054906101000a900460ff16905092915050565b610c4d61125a565b600073ffffffffffffffffffffffffffffffffffffffff168173ffffffffffffffffffffffffffffffffffffffff161415610cbd576040517f08c379a0000000000000000000000000000000000000000000000000000000008152600401610cb49061273f565b60405180910390fd5b610cc6816112d8565b50565b60007f01ffc9a7000000000000000000000000000000000000000000000000000000007bffffffffffffffffffffffffffffffffffffffffffffffffffffffff1916827bffffffffffffffffffffffffffffffffffffffffffffffffffffffff1916149050919050565b610d3c816111dc565b610d7b576040517f08c379a0000000000000000000000000000000000000000000000000000000008152600401610d72906125af565b60405180910390fd5b50565b600033905090565b816004600083815260200190815260200160002060006101000a81548173ffffffffffffffffffffffffffffffffffffffff021916908373ffffffffffffffffffffffffffffffffffffffff160217905550808273ffffffffffffffffffffffffffffffffffffffff16610df983610800565b73ffffffffffffffffffffffffffffffffffffffff167f8c5be1e5ebec7d5bd14f71427d1e84f3dd0314c0f7b2291e5b200ac8c7c3b92560405160405180910390a45050565b600080610e4b83610800565b90508073ffffffffffffffffffffffffffffffffffffffff168473ffffffffffffffffffffffffffffffffffffffff161480610e8d5750610e8c8185610bb1565b5b80610ecb57508373ffffffffffffffffffffffffffffffffffffffff16610eb384610509565b73ffffffffffffffffffffffffffffffffffffffff16145b91505092915050565b8273ffffffffffffffffffffffffffffffffffffffff16610ef482610800565b73ffffffffffffffffffffffffffffffffffffffff1614610f4a576040517f08c379a0000000000000000000000000000000000000000000000000000000008152600401610f41906127d1565b60405180910390fd5b600073ffffffffffffffffffffffffffffffffffffffff168273ffffffffffffffffffffffffffffffffffffffff161415610fba576040517f08c379a0000000000000000000000000000000000000000000000000000000008152600401610fb190612863565b60405180910390fd5b610fc783838360016117c7565b8273ffffffffffffffffffffffffffffffffffffffff16610fe782610800565b73ffffffffffffffffffffffffffffffffffffffff161461103d576040517f08c379a0000000000000000000000000000000000000000000000000000000008152600401611034906127d1565b60405180910390fd5b6004600082815260200190815260200160002060006101000a81549073ffffffffffffffffffffffffffffffffffffffff02191690556001600360008573ffffffffffffffffffffffffffffffffffffffff1673ffffffffffffffffffffffffffffffffffffffff168152602001908152602001600020600082825403925050819055506001600360008473ffffffffffffffffffffffffffffffffffffffff1673ffffffffffffffffffffffffffffffffffffffff16815260200190815260200160002060008282540192505081905550816002600083815260200190815260200160002060006101000a81548173ffffffffffffffffffffffffffffffffffffffff021916908373ffffffffffffffffffffffffffffffffffffffff160217905550808273ffffffffffffffffffffffffffffffffffffffff168473ffffffffffffffffffffffffffffffffffffffff167fddf252ad1be2c89b69c2b068fc378daa952ba7f163c4a11628f55a4df523b3ef60405160405180910390a46111c983838360016117cd565b505050565b600081600001549050919050565b60008073ffffffffffffffffffffffffffffffffffffffff166111fe8361121d565b73ffffffffffffffffffffffffffffffffffffffff1614159050919050565b60006002600083815260200190815260200160002060009054906101000a900473ffffffffffffffffffffffffffffffffffffffff169050919050565b611262610d7e565b73ffffffffffffffffffffffffffffffffffffffff16611280610953565b73ffffffffffffffffffffffffffffffffffffffff16146112d6576040517f08c379a00000000000000000000000000000000000000000000000000000000081526004016112cd906128cf565b60405180910390fd5b565b6000600660009054906101000a900473ffffffffffffffffffffffffffffffffffffffff16905081600660006101000a81548173ffffffffffffffffffffffffffffffffffffffff021916908373ffffffffffffffffffffffffffffffffffffffff1602179055508173ffffffffffffffffffffffffffffffffffffffff168173ffffffffffffffffffffffffffffffffffffffff167f8be0079c531659141344cd1fd0a4f28419497f9722a3daafe3b4186f6b6457e060405160405180910390a35050565b8173ffffffffffffffffffffffffffffffffffffffff168373ffffffffffffffffffffffffffffffffffffffff16141561140d576040517f08c379a00000000000000000000000000000000000000000000000000000000081526004016114049061293b565b60405180910390fd5b80600560008573ffffffffffffffffffffffffffffffffffffffff1673ffffffffffffffffffffffffffffffffffffffff16815260200190815260200160002060008473ffffffffffffffffffffffffffffffffffffffff1673ffffffffffffffffffffffffffffffffffffffff16815260200190815260200160002060006101000a81548160ff0219169083151502179055508173ffffffffffffffffffffffffffffffffffffffff168373ffffffffffffffffffffffffffffffffffffffff167f17307eab39ab6107e8899845ad3d59bd9653f200f220920489ca2b5937696c31836040516114fe9190611b05565b60405180910390a3505050565b611516848484610ed4565b611522848484846117d3565b611561576040517f08c379a0000000000000000000000000000000000000000000000000000000008152600401611558906129cd565b60405180910390fd5b50505050565b600073ffffffffffffffffffffffffffffffffffffffff168273ffffffffffffffffffffffffffffffffffffffff1614156115d7576040517f08c379a00000000000000000000000000000000000000000000000000000000081526004016115ce90612a39565b60405180910390fd5b6115e0816111dc565b15611620576040517f08c379a000000000000000000000000000000000000000000000000000000000815260040161161790612aa5565b60405180910390fd5b61162e6000838360016117c7565b611637816111dc565b15611677576040517f08c379a000000000000000000000000000000000000000000000000000000000815260040161166e90612aa5565b60405180910390fd5b6001600360008473ffffffffffffffffffffffffffffffffffffffff1673ffffffffffffffffffffffffffffffffffffffff16815260200190815260200160002060008282540192505081905550816002600083815260200190815260200160002060006101000a81548173ffffffffffffffffffffffffffffffffffffffff021916908373ffffffffffffffffffffffffffffffffffffffff160217905550808273ffffffffffffffffffffffffffffffffffffffff16600073ffffffffffffffffffffffffffffffffffffffff167fddf252ad1be2c89b69c2b068fc378daa952ba7f163c4a11628f55a4df523b3ef60405160405180910390a46117816000838360016117cd565b5050565b806008600084815260200190815260200160002090805190602001906117ac9291906119ae565b505050565b6001816000016000828254019250508190555050565b50505050565b50505050565b60006117f48473ffffffffffffffffffffffffffffffffffffffff1661196a565b1561195d578373ffffffffffffffffffffffffffffffffffffffff1663150b7a0261181d610d7e565b8786866040518563ffffffff1660e01b815260040161183f9493929190612b1a565b602060405180830381600087803b15801561185957600080fd5b505af192505050801561188a57506040513d601f19601f820116820180604052508101906118879190612b7b565b60015b61190d573d80600081146118ba576040519150601f19603f3d011682016040523d82523d6000602084013e6118bf565b606091505b50600081511415611905576040517f08c379a00000000000000000000000000000000000000000000000000000000081526004016118fc906129cd565b60405180910390fd5b805181602001fd5b63150b7a0260e01b7bffffffffffffffffffffffffffffffffffffffffffffffffffffffff1916817bffffffffffffffffffffffffffffffffffffffffffffffffffffffff191614915050611962565b600190505b949350505050565b6000808273ffffffffffffffffffffffffffffffffffffffff163b119050919050565b60405180606001604052806000815260200160608152602001606081525090565b8280546119ba906122d4565b90600052602060002090601f0160209004810192826119dc5760008555611a23565b82601f106119f557805160ff1916838001178555611a23565b82800160010185558215611a23579182015b82811115611a22578251825591602001919060010190611a07565b5b509050611a309190611a34565b5090565b5b80821115611a4d576000816000905550600101611a35565b5090565b6000604051905090565b600080fd5b600080fd5b60007fffffffff0000000000000000000000000000000000000000000000000000000082169050919050565b611a9a81611a65565b8114611aa557600080fd5b50565b600081359050611ab781611a91565b92915050565b600060208284031215611ad357611ad2611a5b565b5b6000611ae184828501611aa8565b91505092915050565b60008115159050919050565b611aff81611aea565b82525050565b6000602082019050611b1a6000830184611af6565b92915050565b600081519050919050565b600082825260208201905092915050565b60005b83811015611b5a578082015181840152602081019050611b3f565b83811115611b69576000848401525b50505050565b6000601f19601f8301169050919050565b6000611b8b82611b20565b611b958185611b2b565b9350611ba5818560208601611b3c565b611bae81611b6f565b840191505092915050565b60006020820190508181036000830152611bd38184611b80565b905092915050565b6000819050919050565b611bee81611bdb565b8114611bf957600080fd5b50565b600081359050611c0b81611be5565b92915050565b600060208284031215611c2757611c26611a5b565b5b6000611c3584828501611bfc565b91505092915050565b600073ffffffffffffffffffffffffffffffffffffffff82169050919050565b6000611c6982611c3e565b9050919050565b611c7981611c5e565b82525050565b6000602082019050611c946000830184611c70565b92915050565b611ca381611c5e565b8114611cae57600080fd5b50565b600081359050611cc081611c9a565b92915050565b60008060408385031215611cdd57611cdc611a5b565b5b6000611ceb85828601611cb1565b9250506020611cfc85828601611bfc565b9150509250929050565b600080600060608486031215611d1f57611d1e611a5b565b5b6000611d2d86828701611cb1565b9350506020611d3e86828701611cb1565b9250506040611d4f86828701611bfc565b9150509250925092565b600081519050919050565b600082825260208201905092915050565b6000819050602082019050919050565b611d8e81611bdb565b82525050565b600082825260208201905092915050565b6000611db082611b20565b611dba8185611d94565b9350611dca818560208601611b3c565b611dd381611b6f565b840191505092915050565b6000606083016000830151611df66000860182611d85565b5060208301518482036020860152611e0e8282611da5565b91505060408301518482036040860152611e288282611da5565b9150508091505092915050565b6000611e418383611dde565b905092915050565b6000602082019050919050565b6000611e6182611d59565b611e6b8185611d64565b935083602082028501611e7d85611d75565b8060005b85811015611eb95784840389528151611e9a8582611e35565b9450611ea583611e49565b925060208a01995050600181019050611e81565b50829750879550505050505092915050565b60006020820190508181036000830152611ee58184611e56565b905092915050565b600060208284031215611f0357611f02611a5b565b5b6000611f1184828501611cb1565b91505092915050565b611f2381611bdb565b82525050565b6000602082019050611f3e6000830184611f1a565b92915050565b611f4d81611aea565b8114611f5857600080fd5b50565b600081359050611f6a81611f44565b92915050565b60008060408385031215611f8757611f86611a5b565b5b6000611f9585828601611cb1565b9250506020611fa685828601611f5b565b9150509250929050565b600080fd5b600080fd5b7f4e487b7100000000000000000000000000000000000000000000000000000000600052604160045260246000fd5b611ff282611b6f565b810181811067ffffffffffffffff8211171561201157612010611fba565b5b80604052505050565b6000612024611a51565b90506120308282611fe9565b919050565b600067ffffffffffffffff8211156120505761204f611fba565b5b61205982611b6f565b9050602081019050919050565b82818337600083830152505050565b600061208861208384612035565b61201a565b9050828152602081018484840111156120a4576120a3611fb5565b5b6120af848285612066565b509392505050565b600082601f8301126120cc576120cb611fb0565b5b81356120dc848260208601612075565b91505092915050565b600080600080608085870312156120ff576120fe611a5b565b5b600061210d87828801611cb1565b945050602061211e87828801611cb1565b935050604061212f87828801611bfc565b925050606085013567ffffffffffffffff8111156121505761214f611a60565b5b61215c878288016120b7565b91505092959194509250565b600067ffffffffffffffff82111561218357612182611fba565b5b61218c82611b6f565b9050602081019050919050565b60006121ac6121a784612168565b61201a565b9050828152602081018484840111156121c8576121c7611fb5565b5b6121d3848285612066565b509392505050565b600082601f8301126121f0576121ef611fb0565b5b8135612200848260208601612199565b91505092915050565b600080604083850312156122205761221f611a5b565b5b600061222e85828601611cb1565b925050602083013567ffffffffffffffff81111561224f5761224e611a60565b5b61225b858286016121db565b9150509250929050565b6000806040838503121561227c5761227b611a5b565b5b600061228a85828601611cb1565b925050602061229b85828601611cb1565b9150509250929050565b7f4e487b7100000000000000000000000000000000000000000000000000000000600052602260045260246000fd5b600060028204905060018216806122ec57607f821691505b60208210811415612300576122ff6122a5565b5b50919050565b7f4552433732313a20617070726f76616c20746f2063757272656e74206f776e6560008201527f7200000000000000000000000000000000000000000000000000000000000000602082015250565b6000612362602183611b2b565b915061236d82612306565b604082019050919050565b6000602082019050818103600083015261239181612355565b9050919050565b7f4552433732313a20617070726f76652063616c6c6572206973206e6f7420746f60008201527f6b656e206f776e6572206f7220617070726f76656420666f7220616c6c000000602082015250565b60006123f4603d83611b2b565b91506123ff82612398565b604082019050919050565b60006020820190508181036000830152612423816123e7565b9050919050565b7f4552433732313a2063616c6c6572206973206e6f7420746f6b656e206f776e6560008201527f72206f7220617070726f76656400000000000000000000000000000000000000602082015250565b6000612486602d83611b2b565b91506124918261242a565b604082019050919050565b600060208201905081810360008301526124b581612479565b9050919050565b7f4e487b7100000000000000000000000000000000000000000000000000000000600052603260045260246000fd5b7f4e487b7100000000000000000000000000000000000000000000000000000000600052601160045260246000fd5b600061252582611bdb565b91507fffffffffffffffffffffffffffffffffffffffffffffffffffffffffffffffff821415612558576125576124eb565b5b600182019050919050565b7f4552433732313a20696e76616c696420746f6b656e2049440000000000000000600082015250565b6000612599601883611b2b565b91506125a482612563565b602082019050919050565b600060208201905081810360008301526125c88161258c565b9050919050565b7f4552433732313a2061646472657373207a65726f206973206e6f74206120766160008201527f6c6964206f776e65720000000000000000000000000000000000000000000000602082015250565b600061262b602983611b2b565b9150612636826125cf565b604082019050919050565b6000602082019050818103600083015261265a8161261e565b9050919050565b7f555249206e6f74206578697374206f6e20746861742049440000000000000000600082015250565b6000612697601883611b2b565b91506126a282612661565b602082019050919050565b600060208201905081810360008301526126c68161268a565b9050919050565b7f4f776e61626c653a206e6577206f776e657220697320746865207a65726f206160008201527f6464726573730000000000000000000000000000000000000000000000000000602082015250565b6000612729602683611b2b565b9150612734826126cd565b604082019050919050565b600060208201905081810360008301526127588161271c565b9050919050565b7f4552433732313a207472616e736665722066726f6d20696e636f72726563742060008201527f6f776e6572000000000000000000000000000000000000000000000000000000602082015250565b60006127bb602583611b2b565b91506127c68261275f565b604082019050919050565b600060208201905081810360008301526127ea816127ae565b9050919050565b7f4552433732313a207472616e7366657220746f20746865207a65726f2061646460008201527f7265737300000000000000000000000000000000000000000000000000000000602082015250565b600061284d602483611b2b565b9150612858826127f1565b604082019050919050565b6000602082019050818103600083015261287c81612840565b9050919050565b7f4f776e61626c653a2063616c6c6572206973206e6f7420746865206f776e6572600082015250565b60006128b9602083611b2b565b91506128c482612883565b602082019050919050565b600060208201905081810360008301526128e8816128ac565b9050919050565b7f4552433732313a20617070726f766520746f2063616c6c657200000000000000600082015250565b6000612925601983611b2b565b9150612930826128ef565b602082019050919050565b6000602082019050818103600083015261295481612918565b9050919050565b7f4552433732313a207472616e7366657220746f206e6f6e20455243373231526560008201527f63656976657220696d706c656d656e7465720000000000000000000000000000602082015250565b60006129b7603283611b2b565b91506129c28261295b565b604082019050919050565b600060208201905081810360008301526129e6816129aa565b9050919050565b7f4552433732313a206d696e7420746f20746865207a65726f2061646472657373600082015250565b6000612a23602083611b2b565b9150612a2e826129ed565b602082019050919050565b60006020820190508181036000830152612a5281612a16565b9050919050565b7f4552433732313a20746f6b656e20616c7265616479206d696e74656400000000600082015250565b6000612a8f601c83611b2b565b9150612a9a82612a59565b602082019050919050565b60006020820190508181036000830152612abe81612a82565b9050919050565b600081519050919050565b600082825260208201905092915050565b6000612aec82612ac5565b612af68185612ad0565b9350612b06818560208601611b3c565b612b0f81611b6f565b840191505092915050565b6000608082019050612b2f6000830187611c70565b612b3c6020830186611c70565b612b496040830185611f1a565b8181036060830152612b5b8184612ae1565b905095945050505050565b600081519050612b7581611a91565b92915050565b600060208284031215612b9157612b90611a5b565b5b6000612b9f84828501612b66565b9150509291505056fea2646970667358221220e2e1f9e36c6ae8c24aae3ac1bf7e66aef19f66c1b67289b044679a9c2682782f64736f6c63430008090033",
  "linkReferences": {},
  "deployedLinkReferences": {}
}